{
  "_format": "hh-sol-artifact-1",
  "contractName": "Escrow",
  "sourceName": "contracts/Escrow.sol",
  "abi": [
    {
      "inputs": [],
      "stateMutability": "nonpayable",
      "type": "constructor"
    },
    {
      "anonymous": false,
      "inputs": [
        {
          "indexed": false,
          "internalType": "address",
          "name": "admin",
          "type": "address"
        }
      ],
      "name": "ContractCreated",
      "type": "event"
    },
    {
      "anonymous": false,
      "inputs": [
        {
          "indexed": true,
          "internalType": "uint256",
          "name": "projectId",
          "type": "uint256"
        },
        {
          "indexed": true,
          "internalType": "address",
          "name": "raisedBy",
          "type": "address"
        }
      ],
      "name": "DisputeRaised",
      "type": "event"
    },
    {
      "anonymous": false,
      "inputs": [
        {
          "indexed": true,
          "internalType": "uint256",
          "name": "projectId",
          "type": "uint256"
        },
        {
          "indexed": false,
          "internalType": "bool",
          "name": "releaseToFreelancer",
          "type": "bool"
        }
      ],
      "name": "DisputeResolved",
      "type": "event"
    },
    {
      "anonymous": false,
      "inputs": [
        {
          "indexed": true,
          "internalType": "uint256",
          "name": "projectId",
          "type": "uint256"
        },
        {
          "indexed": true,
          "internalType": "address",
          "name": "client",
          "type": "address"
        },
        {
          "indexed": false,
          "internalType": "uint256",
          "name": "amount",
          "type": "uint256"
        }
      ],
      "name": "MilestoneFunded",
      "type": "event"
    },
    {
      "anonymous": false,
      "inputs": [
        {
          "indexed": true,
          "internalType": "uint256",
          "name": "projectId",
          "type": "uint256"
        },
        {
          "indexed": true,
          "internalType": "address",
          "name": "freelancer",
          "type": "address"
        },
        {
          "indexed": false,
          "internalType": "uint256",
          "name": "amount",
          "type": "uint256"
        }
      ],
      "name": "PaymentReleased",
      "type": "event"
    },
    {
      "inputs": [],
      "name": "admin",
      "outputs": [
        {
          "internalType": "address",
          "name": "",
          "type": "address"
        }
      ],
      "stateMutability": "view",
      "type": "function"
    },
    {
      "inputs": [
        {
          "internalType": "uint256",
          "name": "_projectId",
          "type": "uint256"
        },
        {
          "internalType": "address",
          "name": "_freelancer",
          "type": "address"
        }
      ],
      "name": "fundMilestone",
      "outputs": [],
      "stateMutability": "payable",
      "type": "function"
    },
    {
      "inputs": [
        {
          "internalType": "uint256",
          "name": "",
          "type": "uint256"
        }
      ],
      "name": "projectMilestones",
      "outputs": [
        {
          "internalType": "uint256",
          "name": "id",
          "type": "uint256"
        },
        {
          "internalType": "uint256",
          "name": "projectId",
          "type": "uint256"
        },
        {
          "internalType": "address",
          "name": "client",
          "type": "address"
        },
        {
          "internalType": "address",
          "name": "freelancer",
          "type": "address"
        },
        {
          "internalType": "uint256",
          "name": "amount",
          "type": "uint256"
        },
        {
          "internalType": "enum Escrow.MilestoneStatus",
          "name": "status",
          "type": "uint8"
        }
      ],
      "stateMutability": "view",
      "type": "function"
    },
    {
      "inputs": [
        {
          "internalType": "uint256",
          "name": "_projectId",
          "type": "uint256"
        }
      ],
      "name": "raiseDispute",
      "outputs": [],
      "stateMutability": "nonpayable",
      "type": "function"
    },
    {
      "inputs": [
        {
          "internalType": "uint256",
          "name": "_projectId",
          "type": "uint256"
        }
      ],
      "name": "releasePayment",
      "outputs": [],
      "stateMutability": "nonpayable",
      "type": "function"
    },
    {
      "inputs": [
        {
          "internalType": "uint256",
          "name": "_projectId",
          "type": "uint256"
        },
        {
          "internalType": "bool",
          "name": "_releaseToFreelancer",
          "type": "bool"
        }
      ],
      "name": "resolveDispute",
      "outputs": [],
      "stateMutability": "nonpayable",
      "type": "function"
    }
  ],
  "bytecode": "0x608060405234801561001057600080fd5b50336000806101000a81548173ffffffffffffffffffffffffffffffffffffffff021916908373ffffffffffffffffffffffffffffffffffffffff1602179055507fcf78cf0d6f3d8371e1075c69c492ab4ec5d8cf23a1a239b6a51a1d00be7ca31260008054906101000a900473ffffffffffffffffffffffffffffffffffffffff166040516100a091906100ee565b60405180910390a1610109565b600073ffffffffffffffffffffffffffffffffffffffff82169050919050565b60006100d8826100ad565b9050919050565b6100e8816100cd565b82525050565b600060208201905061010360008301846100df565b92915050565b611375806101186000396000f3fe6080604052600436106100555760003560e01c80630aede8531461005a57806334b25ee21461009c57806348cd14d4146100c557806388685cd9146100e1578063a5c1674e1461010a578063f851a44014610133575b600080fd5b34801561006657600080fd5b50610081600480360381019061007c9190610cc3565b61015e565b60405161009396959493929190610db7565b60405180910390f35b3480156100a857600080fd5b506100c360048036038101906100be9190610e50565b6101e7565b005b6100df60048036038101906100da9190610ebc565b610535565b005b3480156100ed57600080fd5b5061010860048036038101906101039190610cc3565b610782565b005b34801561011657600080fd5b50610131600480360381019061012c9190610cc3565b610a4e565b005b34801561013f57600080fd5b50610148610c64565b6040516101559190610efc565b60405180910390f35b60016020528060005260406000206000915090508060000154908060010154908060020160009054906101000a900473ffffffffffffffffffffffffffffffffffffffff16908060030160009054906101000a900473ffffffffffffffffffffffffffffffffffffffff16908060040154908060050160009054906101000a900460ff16905086565b60008054906101000a900473ffffffffffffffffffffffffffffffffffffffff1673ffffffffffffffffffffffffffffffffffffffff163373ffffffffffffffffffffffffffffffffffffffff1614610275576040517f08c379a000000000000000000000000000000000000000000000000000000000815260040161026c90610f74565b60405180910390fd5b600060016000848152602001908152602001600020905060058081111561029f5761029e610d40565b5b8160050160009054906101000a900460ff1660058111156102c3576102c2610d40565b5b14610303576040517f08c379a00000000000000000000000000000000000000000000000000000000081526004016102fa90610fe0565b60405180910390fd5b811561045a5760048160050160006101000a81548160ff0219169083600581111561033157610330610d40565b5b02179055508060030160009054906101000a900473ffffffffffffffffffffffffffffffffffffffff1673ffffffffffffffffffffffffffffffffffffffff166108fc82600401549081150290604051600060405180830381858888f193505050501580156103a4573d6000803e3d6000fd5b50827f5a87909bff68caaaaf0b3fd9c74eeccc928832f879315e5c6fb7a73612f26c0c60016040516103d6919061100f565b60405180910390a28060030160009054906101000a900473ffffffffffffffffffffffffffffffffffffffff1673ffffffffffffffffffffffffffffffffffffffff16837f21d71db5be59bb9fa133895586b7404307dd33fb93b16db09dc6f1d9d7d231b0836004015460405161044d919061102a565b60405180910390a3610530565b60038160050160006101000a81548160ff0219169083600581111561048257610481610d40565b5b02179055508060020160009054906101000a900473ffffffffffffffffffffffffffffffffffffffff1673ffffffffffffffffffffffffffffffffffffffff166108fc82600401549081150290604051600060405180830381858888f193505050501580156104f5573d6000803e3d6000fd5b50827f5a87909bff68caaaaf0b3fd9c74eeccc928832f879315e5c6fb7a73612f26c0c6000604051610527919061100f565b60405180910390a25b505050565b60003411610578576040517f08c379a000000000000000000000000000000000000000000000000000000000815260040161056f90611091565b60405180910390fd5b60006001600084815260200190815260200160002060000154146105d1576040517f08c379a00000000000000000000000000000000000000000000000000000000081526004016105c890611123565b60405180910390fd5b6040518060c001604052808381526020018381526020013373ffffffffffffffffffffffffffffffffffffffff1681526020018273ffffffffffffffffffffffffffffffffffffffff1681526020013481526020016001600581111561063a57610639610d40565b5b81525060016000848152602001908152602001600020600082015181600001556020820151816001015560408201518160020160006101000a81548173ffffffffffffffffffffffffffffffffffffffff021916908373ffffffffffffffffffffffffffffffffffffffff16021790555060608201518160030160006101000a81548173ffffffffffffffffffffffffffffffffffffffff021916908373ffffffffffffffffffffffffffffffffffffffff1602179055506080820151816004015560a08201518160050160006101000a81548160ff0219169083600581111561072757610726610d40565b5b02179055509050503373ffffffffffffffffffffffffffffffffffffffff16827f9370cbebf61d6a32fe408c102764aebb0612f311dce08cde09216e45ff8ec67a34604051610776919061102a565b60405180910390a35050565b806001600082815260200190815260200160002060020160009054906101000a900473ffffffffffffffffffffffffffffffffffffffff1673ffffffffffffffffffffffffffffffffffffffff163373ffffffffffffffffffffffffffffffffffffffff1614610827576040517f08c379a000000000000000000000000000000000000000000000000000000000815260040161081e9061118f565b60405180910390fd5b60006001600084815260200190815260200160002090506001600581111561085257610851610d40565b5b8160050160009054906101000a900460ff16600581111561087657610875610d40565b5b14806108b757506002600581111561089157610890610d40565b5b8160050160009054906101000a900460ff1660058111156108b5576108b4610d40565b5b145b806108f75750600360058111156108d1576108d0610d40565b5b8160050160009054906101000a900460ff1660058111156108f5576108f4610d40565b5b145b610936576040517f08c379a000000000000000000000000000000000000000000000000000000000815260040161092d90611221565b60405180910390fd5b60048160050160006101000a81548160ff0219169083600581111561095e5761095d610d40565b5b02179055508060030160009054906101000a900473ffffffffffffffffffffffffffffffffffffffff1673ffffffffffffffffffffffffffffffffffffffff166108fc82600401549081150290604051600060405180830381858888f193505050501580156109d1573d6000803e3d6000fd5b508060030160009054906101000a900473ffffffffffffffffffffffffffffffffffffffff1673ffffffffffffffffffffffffffffffffffffffff16837f21d71db5be59bb9fa133895586b7404307dd33fb93b16db09dc6f1d9d7d231b08360040154604051610a41919061102a565b60405180910390a3505050565b806001600082815260200190815260200160002060020160009054906101000a900473ffffffffffffffffffffffffffffffffffffffff1673ffffffffffffffffffffffffffffffffffffffff163373ffffffffffffffffffffffffffffffffffffffff161480610b2057506001600082815260200190815260200160002060030160009054906101000a900473ffffffffffffffffffffffffffffffffffffffff1673ffffffffffffffffffffffffffffffffffffffff163373ffffffffffffffffffffffffffffffffffffffff16145b610b5f576040517f08c379a0000000000000000000000000000000000000000000000000000000008152600401610b56906112b3565b60405180910390fd5b600060016000848152602001908152602001600020905060046005811115610b8a57610b89610d40565b5b8160050160009054906101000a900460ff166005811115610bae57610bad610d40565b5b03610bee576040517f08c379a0000000000000000000000000000000000000000000000000000000008152600401610be59061131f565b60405180910390fd5b60058160050160006101000a81548160ff02191690836005811115610c1657610c15610d40565b5b02179055503373ffffffffffffffffffffffffffffffffffffffff16837f84a477df8a28a4276ca6dee4458a06c3015f30c477d9c949ede4e13ff8a552b460405160405180910390a3505050565b60008054906101000a900473ffffffffffffffffffffffffffffffffffffffff1681565b600080fd5b6000819050919050565b610ca081610c8d565b8114610cab57600080fd5b50565b600081359050610cbd81610c97565b92915050565b600060208284031215610cd957610cd8610c88565b5b6000610ce784828501610cae565b91505092915050565b610cf981610c8d565b82525050565b600073ffffffffffffffffffffffffffffffffffffffff82169050919050565b6000610d2a82610cff565b9050919050565b610d3a81610d1f565b82525050565b7f4e487b7100000000000000000000000000000000000000000000000000000000600052602160045260246000fd5b60068110610d8057610d7f610d40565b5b50565b6000819050610d9182610d6f565b919050565b6000610da182610d83565b9050919050565b610db181610d96565b82525050565b600060c082019050610dcc6000830189610cf0565b610dd96020830188610cf0565b610de66040830187610d31565b610df36060830186610d31565b610e006080830185610cf0565b610e0d60a0830184610da8565b979650505050505050565b60008115159050919050565b610e2d81610e18565b8114610e3857600080fd5b50565b600081359050610e4a81610e24565b92915050565b60008060408385031215610e6757610e66610c88565b5b6000610e7585828601610cae565b9250506020610e8685828601610e3b565b9150509250929050565b610e9981610d1f565b8114610ea457600080fd5b50565b600081359050610eb681610e90565b92915050565b60008060408385031215610ed357610ed2610c88565b5b6000610ee185828601610cae565b9250506020610ef285828601610ea7565b9150509250929050565b6000602082019050610f116000830184610d31565b92915050565b600082825260208201905092915050565b7f4f6e6c792061646d696e2063616e2063616c6c20746869730000000000000000600082015250565b6000610f5e601883610f17565b9150610f6982610f28565b602082019050919050565b60006020820190508181036000830152610f8d81610f51565b9050919050565b7f4d696c6573746f6e65206973206e6f7420646973707574656400000000000000600082015250565b6000610fca601983610f17565b9150610fd582610f94565b602082019050919050565b60006020820190508181036000830152610ff981610fbd565b9050919050565b61100981610e18565b82525050565b60006020820190506110246000830184611000565b92915050565b600060208201905061103f6000830184610cf0565b92915050565b7f416d6f756e74206d7573742062652067726561746572207468616e207a65726f600082015250565b600061107b602083610f17565b915061108682611045565b602082019050919050565b600060208201905081810360008301526110aa8161106e565b9050919050565b7f4d696c6573746f6e6520616c72656164792066756e64656420666f722074686960008201527f732070726f6a6563740000000000000000000000000000000000000000000000602082015250565b600061110d602983610f17565b9150611118826110b1565b604082019050919050565b6000602082019050818103600083015261113c81611100565b9050919050565b7f4f6e6c7920636c69656e742063616e2063616c6c207468697300000000000000600082015250565b6000611179601983610f17565b915061118482611143565b602082019050919050565b600060208201905081810360008301526111a88161116c565b9050919050565b7f4d696c6573746f6e65206973206e6f7420696e20612072656c65617361626c6560008201527f2073746174650000000000000000000000000000000000000000000000000000602082015250565b600061120b602683610f17565b9150611216826111af565b604082019050919050565b6000602082019050818103600083015261123a816111fe565b9050919050565b7f4f6e6c792070726f6a656374207061727469636970616e74732063616e20636160008201527f6c6c207468697300000000000000000000000000000000000000000000000000602082015250565b600061129d602783610f17565b91506112a882611241565b604082019050919050565b600060208201905081810360008301526112cc81611290565b9050919050565b7f46756e647320616c72656164792072656c656173656400000000000000000000600082015250565b6000611309601683610f17565b9150611314826112d3565b602082019050919050565b60006020820190508181036000830152611338816112fc565b905091905056fea2646970667358221220fddb47ec4a47cc5814ed9c6959d6ca302fd34e8411f6386d89b1061bdf25683f64736f6c634300081c0033",
  "linkReferences": {},
  "deployedLinkReferences": {}
}